S00F00004261736963494F2E737265639B
S11300000C94B5000C94D2000C94D2000C94D20041
S11300100C94D2000C94D2000C94D2000C94A6013F
S11300200C94D2000C94D2000C94D2000C94D20004
S11300300C94D2000C94D2000C94D2000C94D200F4
S11300400C9444020C94D2000C94D2000C94D20070
S11300500C94D2000C945B020C94D2000C94D20049
S11300600C94D2000C94D2006E616E00696E66002E
S113007000407A10F35A00A0724E18090010A5D45B
S1130080E80000E87648170000E40B54020000CAB8
S11300909A3B000000E1F5050000809698000000FE
S11300A040420F000000A08601000000102700005D
S11300B00000E803000000006400000000000A00E3
S11300C0000000000100000000002C76D888DC67E6
S11300D04F0823DFC1DFAE59E1B1B796E5E3E4533E
S11300E0C63AE651997696E8E6C28426EB898C9B5B
S11300F062ED407C6FFCEFBC9C9F40F2BAA56FA5FB
S1130100F490055A2AF75C936B6CF9676DC11BFC7C
S1130110E0E40D47FEF520E6B500D0ED902E030097
S1130120943577050080841E080000204E0A0000E4
S113013000C80C333333330F986E12831141EF8DA3
S11301402114893BE65516CFFEE6DB18D1844B38E3
S11301501BF77C1D901DA4BBE424203284725E2214
S11301608100C9F124ECA1E53D2711241FBECFEF86
S1130170D8E0DEBFCDBF11E0A0E0B1E0E4E6F8E1F5
S113018002C005900D92AA34B107D9F721E0AAE480
S1130190B1E001C01D92A436B207E1F70E94170135
S11301A00C94300C0C940000F894ECE7F0E080E43C
S11301B08083AAE7B0E08FEA8C9378948081807F73
S11301C0808390914A018081892B80838C91806403
S11301D08C93089510928900109288002AE030E0F0
S11301E0E8E8F0E0808191810196918380838FE13A
S11301F09EE40197F1F700C000002150310991F706
S11302000895E0E8F0E0808182688083789486E451
S113021090E090938700809386001092890010925A
S11302208800E1E8F0E080818A6180830895CF92BC
S1130230DF92EF92FF920F931F93CF93DF930E946D
S1130240F8020E9409038FEF84B91AB880EF87B9C6
S113025080E388B90E9401010E94D4000E94EA0050
S113026062E070E085E090E00E944E098C01892BE9
S113027009F461C087E390E090938900809388003B
S113028083E291E09F938F930E94BC0B2FEF89E64A
S113029098E1215080409040E1F700C000000F90A9
S11302A00F90CFE2D1E08091060180914B019091B3
S11302B04C01A0914D01B0914E0180914B01909160
S11302C04C01A0914D01B0914E0160914F0170918C
S11302D05001809151019091520125E83BEE41E19A
S11302E05FE30E943A07F62EE72ED82EC92E0E940D
S11302F0AC07F8017183608380914F0190915001A4
S1130300A0915101B0915201BF93AF939F938F93EA
S1130310CF92DF92EF92FF92DF93CF930E94BC0BB8
S1130320809153018DB79EB70A960FB6F8949EBF7D
S11303300FBE8DBFB8CF80E090E0DF91CF911F91C9
S11303400F91FF90EF90DF90CF9008951F920F923E
S11303500FB60F921124CF92DF92EF92FF922F9358
S11303603F934F935F936F937F938F939F93AF9339
S1130370BF93CF93EF93FF938091580190915901CC
S113038001969093590180935801789480910601C5
S1130390209158013091590190E0281739070CF445
S11303A05DC0609156017091570186B5C0910601F8
S11303B0762F6627680F711D80E090E00E94E207A7
S11303C06B017C016C2F70E080E090E00E94E407F8
S11303D02FE632E143E85CE30E9494089B01AC0100
S11303E0C701B6010E943A0720E030E040E752E43A
S11303F00E94940820E030E040E05FE30E9494080B
S11304000E94AC07709355016093540160915401AC
S113041070915501072E000C880B990B0E94E4077C
S113042025E639E142E65CE30E94940821EE3AE7CE
S113043042E752E40E94C9060E9401090E94B307E0
S11304406093060181E0809353011092570110924A
S1130450560116BC1092590110925801FF91EF9168
S1130460CF91BF91AF919F918F917F916F915F9148
S11304704F913F912F91FF90EF90DF90CF900F908D
S11304800FBE0F901F9018951F920F920FB60F92E8
S113049011248F939F938091560190915701019657
S11304A090935701809356019F918F910F900FBEA7
S11304B00F901F9018951F920F920FB60F92112450
S11304C02F933F934F935F936F937F938F939F9358
S11304D0AF93BF93EF93FF9380914A018823B1F1C7
S11304E0609178007091790080E090E00E94E207CA
S11304F02DEC3CEC4CE950E40E94940820E030E000
S113050040E85AE30E94940860934B0170934C01B5
S113051080934D0190934E0160914B0170914C0179
S113052080914D0190914E0120E030E0A9010E949C
S11305303507882344F410924B0110924C01109219
S11305404D0110924E0110924A011FC06091780033
S11305507091790080E090E00E94E2072DEC3CEC81
S11305604CE950E40E94940820E030E040E85AE36B
S11305700E94940860934F0170935001809351013D
S11305809093520181E080934A01ECE7F0E080818E
S1130590807F808390914A018081892B8083FF91A1
S11305A0EF91BF91AF919F918F917F916F915F91E7
S11305B04F913F912F910F900FBE0F901F90189560
S11305C0CF93C82F8A3019F48DE00E94E002E0EC4A
S11305D0F0E0808185FFFDCFC093C600CF910895E0
S11305E0E0ECF0E080818823ECF78091C600089568
S11305F01092C50087E68093C400E0ECF0E08081AF
S11306008D7F808386E08093C20088E18093C1005F
S11306100895EEE5F1E085E191E09383828387E03C
S113062091E0918380830895A0E1B0E0EAE1F3E0F2
S11306300C9491067C011B016A01FC01178216824D
S1130640838181FF44C39E012F5F3F4F3901F7012E
S11306509381F10193FD859193FF81911F0188237B
S113066009F431C3853239F493FD859193FF819167
S11306701F01853239F4B70190E00E94800B5601C6
S11306806501E5CF10E0512C912CFFE1F915D8F06C
S11306908B3279F038F4803279F08332A1F4F92D79
S11306A0F0612EC08D3261F0803369F4292D216010
S11306B02DC0392D3260932E892D8460982E2AC046
S11306C0E92DE86015C097FC2DC020ED280F2A30D5
S11306D088F496FE06C03AE0139F200D1124122FD1
S11306E019C08AE0589E200D1124522EE92DE06293
S11306F09E2E10C08E3231F496FCE5C2F92DF064C2
S11307009F2E08C08C3621F4292D2068922E02C019
S1130710883641F4F10193FD859193FF81911F0186
S11307208111B3CF9BEB980F933020F4992D9061F6
S1130730805E07C09BE9980F933008F066C1992D3D
S11307409F7E96FF16E09F73992E853619F4906468
S1130750992E08C0863621F4392F3068932E02C0B2
S11307601111115097FE07C01C3350F444244394D4
S1130770410E27E00BC0183038F027E017E005C021
S113078027E09CE3492E02C0212F412C560184E02E
S1130790A80EB11CF6016081718182819381042DC0
S11307A0A3010E948B0A6C01F981FC87F0FF02C04F
S11307B0F3FF06C091FC06C092FE06C000E205C02D
S11307C00DE203C00BE201C000E08C858C7019F0CF
S11307D001115AC29BC297FE10C04C0CFC85F4FF59
S11307E004C08A81813309F44A94141474F528E00E
S11307F0241578F588E0482E2CC096FC2AC0812F59
S113080090E08C159D059CF03CEFC3163FEFD3069A
S113081074F0892D8068982E0AC0E2E0F0E0EC0FB5
S1130820FD1FE10FF11D8081803319F41150111166
S1130830F4CF97FE0EC044244394410E812F90E0E0
S1130840C816D9062CF41C1904C04424439401C0CE
S113085010E097FE06C01C141D0434F4C601019672
S113086005C085E090E002C081E090E001110196AE
S1130870112331F0212F30E02F5F3F4F820F931F60
S1130880252D30E08217930714F4581A01C0512C17
S1130890892D897049F4552039F0B70180E290E040
S11308A00E94800B5A94F7CF002329F0B701802FC0
S11308B090E00E94800B93FC09C0552039F0B701E9
S11308C080E390E00E94800B5A94F7CF97FE4CC0CF
S11308D04601D7FE02C0812C912CC60188199909C2
S11308E0F301E80FF91FFE87ED87960124193109FA
S11308F0388B2F87012F10E01195019511093FEFD7
S11309008316930629F4B7018EE290E00E94800BCF
S1130910C814D9044CF08F8598898815990524F456
S1130920ED85FE85818101C080E3F1E08F1A910895
S11309302D853E852F5F3F4F3E872D87801691067C
S11309402CF0B70190E00E94800BD9CFC814D904D1
S113095041F49A81963320F4953319F43C8534FF9D
S113096081E3B70190E04EC08A81813319F09C8500
S11309709F7E9C87B70190E00E94800B111105C0F7
S113098094FC18C085E690E017C0B7018EE290E0B1
S11309900E94800B1E5F82E001E0080FF301E80F64
S11309A0F11D8081B70190E00E94800B802F01131C
S11309B0F3CFE6CF85E490E0B7010E94800BD7FC2B
S11309C006C0C114D10441F4EC85E4FF05C0D19400
S11309D0C194D1088DE201C08BE2B70190E00E947E
S11309E0800B80E32AE0C216D1042CF08F5FFAE07A
S11309F0CF1AD108F7CFB70190E00E94800BB7015E
S1130A00C601C0960E94800B54C1833631F08337EF
S1130A1079F0833509F056C020C0560132E0A30EA8
S1130A20B11CF6018081898301E010E0630112C0EA
S1130A305601F2E0AF0EB11CF601C080D18096FEE3
S1130A4003C0612F70E002C06FEF7FEFC6010E9408
S1130A50750B8C01F92DFF7714C0560122E0A20E0C
S1130A60B11CF601C080D18096FE03C0612F70E0F6
S1130A7002C06FEF7FEFC6010E94630B8C01F92D5A
S1130A80F0689F2EF3FD1AC0852D90E00817190712
S1130A90A8F4B70180E290E00E94800B5A94F4CF4E
S1130AA0F60197FC859197FE81916F01B70190E063
S1130AB00E94800B51105A9401501109011511051F
S1130AC079F7F7C0843611F0893661F5560197FE3F
S1130AD009C024E0A20EB11CF601608171818281FB
S1130AE093810AC0F2E0AF0EB11CF60160817181FE
S1130AF0072E000C880B990BF92DFF769F2E97FF7C
S1130B0009C090958095709561957F4F8F4F9F4F49
S1130B10F0689F2E2AE030E0A3010E94D20BC82E79
S1130B20C6183FC0092D853721F40F7E2AE030E036
S1130B301DC0097F8F3691F018F4883559F0C3C071
S1130B40803719F0883711F0BEC0006104FF09C076
S1130B50046007C094FE08C0066006C028E030E0C8
S1130B6005C020E130E002C020E132E0560107FF79
S1130B7009C084E0A80EB11CF601608171818281F4
S1130B80938108C0F2E0AF0EB11CF601608171815F
S1130B9080E090E0A3010E94D20BC82EC6180F7704
S1130BA0902E96FE0BC0092D0E7FC11650F494FEB4
S1130BB00AC092FC08C0092D0E7E05C0DC2C092D4C
S1130BC003C0DC2C01C0D12E04FF0DC0FE01EC0DCE
S1130BD0F11D8081803311F4097E09C002FF06C033
S1130BE0D394D39404C0802F867809F0D39403FD62
S1130BF011C000FF06C01C2DD51480F4150D1D195D
S1130C000DC0D51458F4B70180E290E00E94800B27
S1130C10D394F7CFD51410F45D1801C0512C04FF00
S1130C2010C0B70180E390E00E94800B02FF17C060
S1130C3001FD03C088E790E002C088E590E0B701B9
S1130C400CC0802F867859F001FF02C08BE201C0EE
S1130C5080E207FD8DE2B70190E00E94800BC1168F
S1130C6038F4B70180E390E00E94800B1150F7CF75
S1130C70CA94F301EC0DF11D8081B70190E00E944C
S1130C80800BC110F5CF15C0F4E0F51560F584E0D4
S1130C90581A93FE1FC0011127C02C8523FF2AC0B8
S1130CA008E610E0392D3071932EF80184918111FA
S1130CB024C0552009F4E4CCB70180E290E00E94FE
S1130CC0800B5A94F6CFF7018681978126C08FEF67
S1130CD09FEF23C0B70180E290E00E94800B5A94FA
S1130CE05110F8CFD8CF512CB701802F90E00E943B
S1130CF0800BD3CF0CE610E0D5CF91108052B70112
S1130D0090E00E94800B0F5F1F4FCFCF23E025158B
S1130D1010F483E0BDCF512CC0CF6096E2E10C9477
S1130D20AD062F923F924F925F926F927F928F9275
S1130D309F92AF92BF92CF92DF92EF92FF920F9366
S1130D401F93CF93DF93CDB7DEB7CA1BDB0B0FB670
S1130D50F894DEBF0FBECDBF09942A88398848882D
S1130D605F846E847D848C849B84AA84B984C884C3
S1130D70DF80EE80FD800C811B81AA81B981CE0FBA
S1130D80D11D0FB6F894DEBF0FBECDBFED0108959F
S1130D905058BB27AA270E94E0060C945A080E94C8
S1130DA04C0838F00E94530820F039F49F3F19F49E
S1130DB026F40C9449080EF4E095E7FB0C944308E0
S1130DC0E92F0E946B0858F3BA1762077307840768
S1130DD0950720F079F4A6F50C948D080EF4E095AF
S1130DE00B2EBA2FA02D0B01B90190010C01CA01E1
S1130DF0A0011124FF27591B99F0593F50F4503E8C
S1130E0068F11A16F040A22F232F342F4427585F7D
S1130E10F3CF469537952795A795F0405395C9F795
S1130E207EF41F16BA0B620B730B840BBAF091504D
S1130E30A1F0FF0FBB1F661F771F881FC2F70EC0EC
S1130E40BA0F621F731F841F48F4879577956795BF
S1130E50B795F7959E3F08F0B0CF9395880F08F0AB
S1130E609927EE0F9795879508950E941F0808F417
S1130E7081E008950E944E070C945A080E9453087A
S1130E8058F00E944C0840F029F45F3F29F00C947C
S1130E90430851110C948E080C9449080E946B0865
S1130EA068F39923B1F3552391F3951B550BBB2795
S1130EB0AA2762177307840738F09F5F5F4F220FDA
S1130EC0331F441FAA1FA9F335D00E2E3AF0E0E8D1
S1130ED032D091505040E695001CCAF72BD0FE2F1B
S1130EE029D0660F771F881FBB1F261737074807AF
S1130EF0AB07B0E809F0BB0B802DBF01FF27935867
S1130F005F4F3AF09E3F510578F00C9443080C94DF
S1130F108E085F3FE4F3983ED4F386957795679502
S1130F20B795F7959F5FC9F7880F911D969587959B
S1130F3097F90895E1E0660F771F881FBB1F6217BA
S1130F4073078407BA0720F0621B730B840BBA0B78
S1130F50EE1F88F7E09508950E94B3076894B111D5
S1130F600C948E0808950E94730888F09F5798F097
S1130F70B92F9927B751B0F0E1F0660F771F881F9A
S1130F80991F1AF0BA95C9F714C0B13091F00E94B4
S1130F908D08B1E008950C948D08672F782F882769
S1130FA0B85F39F0B93FCCF3869577956795B395DB
S1130FB0D9F73EF490958095709561957F4F8F4F4A
S1130FC09F4F0895E89409C097FB3EF4909580954F
S1130FD0709561957F4F8F4F9F4F9923A9F0F92FFB
S1130FE096E9BB279395F695879577956795B79579
S1130FF0F111F8CFFAF4BB0F11F460FF1BC06F5F5F
S11310007F4F8F4F9F4F16C0882311F096E911C070
S1131010772321F09EE8872F762F05C0662371F091
S113102096E8862F70E060E02AF09A95660F771FA5
S1131030881FDAF7880F9695879597F90895990F81
S11310400008550FAA0BE0E8FEEF16161706E8078E
S1131050F907C0F012161306E407F50798F0621BAF
S1131060730B840B950B39F40A2661F0232B242B84
S1131070252B21F408950A2609F4A140A6958FEFA3
S1131080811D811D089597F99F6780E870E060E0F5
S113109008959FEF80EC089500240A94161617060D
S11310A018060906089500240A9412161306140655
S11310B005060895092E0394000C11F4882352F0B8
S11310C0BB0F40F4BF2B11F460FF04C06F5F7F4F70
S11310D08F4F9F4F089557FD9058440F551F59F057
S11310E05F3F71F04795880F97FB991F61F09F3F11
S11310F079F087950895121613061406551FF2CF3A
S11311004695F1DF08C0161617061806991FF1CF89
S113111086957105610508940895E894BB276627B0
S11311207727CB0197F908950E94A7080C945A08D1
S11311300E944C0838F00E94530820F0952311F0C7
S11311400C9443080C94490811240C948E080E94B2
S11311506B0870F3959FC1F3950F50E0551F629F84
S1131160F001729FBB27F00DB11D639FAA27F00DFC
S1131170B11DAA1F649F6627B00DA11D661F829F23
S11311802227B00DA11D621F739FB00DA11D621F08
S1131190839FA00D611D221F749F3327A00D611D25
S11311A0231F849F600D211D822F762F6A2F112407
S11311B09F5750409AF0F1F088234AF0EE0FFF1F3A
S11311C0BB1F661F771F881F91505040A9F79E3F91
S11311D0510580F00C9443080C948E085F3FE4F3AF
S11311E0983ED4F3869577956795B795F795E795E7
S11311F09F5FC1F7FE2B880F911D9695879597F9F0
S113120008950E947308E8F09E37E8F09639B8F420
S11312109E3848F4672F782F8827985FF9CF8695F2
S11312207795679593959539D0F3B62FB1706B0F79
S1131230711D811D20F487957795679593950C947E
S113124025090C9440090C948E08882371F47723A3
S113125021F09850872B762F07C0662311F4992725
S11312600DC09051862B70E060E02AF09A95660FCD
S1131270771F881FDAF7880F9695879597F9089551
S11312809F3F31F0915020F4879577956795B795F6
S1131290880F911D9695879597F908950F931F933D
S11312A0CF93DF93869F8001879F100D969F100D2B
S11312B01124C8010E946A09EC01009729F0A801D1
S11312C060E070E00E946E0BCE01DF91CF911F9120
S11312D00F9108950F931F93CF93DF93823091055D
S11312E010F482E090E0E0915C01F0915D0120E077
S11312F030E0A0E0B0E0309719F1408151810281E3
S1131300138148175907C8F08417950769F4109793
S113131031F012960C93129713961C9327C00093E6
S11313205C0110935D0122C02115310519F04217AB
S1131330530718F49A01BD01EF01DF01F801DBCF77
S113134021153105F9F0281B390B2430310580F4BF
S11313508A819B816115710521F0FB01938382834E
S113136004C090935D0180935C01FE01329644C0F9
S1131370FE01E20FF31F81939193225031093983C7
S113138028833AC020915A0130915B01232B41F408
S1131390209102013091030130935B0120935A01A3
S11313A020910001309101012115310541F42DB73F
S11313B03EB74091040150910501241B350BE09187
S11313C05A01F0915B01E217F307A0F42E1B3F0BC7
S11313D02817390778F0AC014E5F5F4F24173507A3
S11313E048F04E0F5F1F50935B0140935A01819365
S11313F0919302C0E0E0F0E0CF01DF91CF911F9123
S11314000F910895CF93DF93009709F481C0FC01F5
S1131410329713821282A0915C01B0915D01109702
S113142081F420813181820F931F20915A013091E0
S11314305B012817390751F5F0935B01E0935A01DA
S113144067C0ED0120E030E0CE17DF0740F44A81A9
S11314505B819E0141155105F1F0EA01F5CFD3837B
S1131460C28340815181840F951FC817D90759F44D
S113147088819981840F951F0296918380838A8144
S11314809B81938382832115310529F4F0935D01B7
S1131490E0935C013DC0E901FB83EA8349915991E2
S11314A0C40FD51FEC17FD0761F480819181840F6F
S11314B0951F0296E90199838883828193819B8396
S11314C08A83E0E0F0E012968D919C911397009747
S11314D019F0FD01DC01F7CF8D919C9111979D01CD
S11314E02E5F3F4F820F931F20915A0130915B0171
S11314F02817390769F4309729F410925D01109286
S11315005C0102C013821282B0935B01A0935A0162
S1131510DF91CF910895283008F027E03327DA01CE
S1131520990F311D87FD916000966105710539F4AD
S113153032602E5F3D9330E32A95E1F708959F3F93
S113154030F080387105610509F03C5F3C5F3D93E4
S1131550913008F08068911DDF93CF931F930F9310
S1131560FF92EF92192F987F9695E92F969596956D
S1131570E90FFF27E653FF4F99273327EE24FF2473
S1131580A701E70105900894079428F4360FE71E95
S1131590F81E491F511D660F771F881F991F069457
S11315A0A1F70590079428F4E70EF81E491F561F6B
S11315B0C11D770F881F991F661F0694A1F7059018
S11315C0079428F4F80E491F561FC71FD11D880F12
S11315D0991F661F771F0694A1F70590079420F4BE
S11315E0490F561FC71FD81F990F661F771F881FE3
S11315F00694A9F784911095177041F0D695C79574
S113160057954795F794E7941A95C1F7E0E7F0E00A
S113161068941590159135916591959105907FE2A7
S11316207395E118F10A430B560BC90BD009C0F7A7
S1131630E10CF11E431F561FC91FD01D7EF47033E9
S113164011F48A95E6CFE894015030F0080F0AF4BB
S11316500027021708F4202F2395022F7A3328F04D
S113166079E37D932A95E9F710C07D932A9589F64D
S1131670069497956795379517951794E118F10A8D
S1131680430B560BC90BD00998F023957E917395A3
S11316907A3308F070E37C932013B8F77E9170617D
S11316A07D9330F0839571E37D9370E32A95E1F7A0
S11316B01124EF90FF900F911F91CF91DF91992703
S11316C087FD90950895FC010590615070400110CC
S11316D0D8F7809590958E0F9F1F0895DC0101C067
S11316E06D9341505040E0F70895FC016150704003
S11316F001900110D8F7809590958E0F9F1F089543
S11317000F931F93CF93DF93FB01238121FD03C02C
S11317108FEF9FEF2CC022FF16C046815781248192
S113172035814217530744F4A081B1819D012F5F95
S11317303F4F318320838C93268137812F5F3F4F26
S11317403783268314C08B01EC01FB010084F185EF
S1131750E02D0995892BE1F6D80116968D919C917F
S11317601797019617969C938E931697CE01DF9147
S1131770CF911F910F910895A0E0B0E0E2ECFBE05F
S11317800C94A106AE014B5F5F4FFA016191719118
S1131790AF0180916001909161010E941403E2E025
S11317A00C94BD06FA01AA27283051F1203181F1A9
S11317B0E8946F936E7F6E5F7F4F8F4F9F4FAF4F55
S11317C0B1E03ED0B4E03CD0670F781F891F9A1F68
S11317D0A11D680F791F8A1F911DA11D6A0F711D1C
S11317E0811D911DA11D20D009F468943F912AE028
S11317F0269F11243019305D3193DEF6CF01089510
S1131800462F4770405D4193B3E00FD0C9F7F6CF40
S1131810462F4F70405D4A3318F0495D31FD405208
S1131820419302D0A9F7EACFB4E0A695979587959E
S113183077956795BA95C9F700976105710508957D
S11318409B01AC010A2E0694579547953795279529
S1131850BA95C9F7620F731F841F951FA01D0895C1
S1071860F894FFCF26
S113186400006401200001000000010000000000E9
S113187400F00200000000000200000000E002008A
S1131884000000696D20696E2073657475700043EF
S1131894757272656E743D252E32662C207C5261FD
S10D18A4773D252E32660A0A000083
S9030000FC
